{
    "contractName": "DataLeasing",
    "abi": [
        {
            "anonymous": false,
            "inputs": [
                {
                    "indexed": true,
                    "internalType": "bytes32",
                    "name": "leaseId",
                    "type": "bytes32"
                }
            ],
            "name": "DataDeleted",
            "type": "event"
        },
        {
            "anonymous": false,
            "inputs": [
                {
                    "indexed": true,
                    "internalType": "bytes32",
                    "name": "leaseId",
                    "type": "bytes32"
                },
                {
                    "indexed": true,
                    "internalType": "address",
                    "name": "owner",
                    "type": "address"
                },
                {
                    "indexed": true,
                    "internalType": "address",
                    "name": "tenant",
                    "type": "address"
                },
                {
                    "indexed": false,
                    "internalType": "uint256",
                    "name": "leaseDuration",
                    "type": "uint256"
                }
            ],
            "name": "LeaseCreated",
            "type": "event"
        },
        {
            "anonymous": false,
            "inputs": [
                {
                    "indexed": true,
                    "internalType": "bytes32",
                    "name": "leaseId",
                    "type": "bytes32"
                }
            ],
            "name": "LeaseRevoked",
            "type": "event"
        },
        {
            "inputs": [
                {
                    "internalType": "address",
                    "name": "tenant",
                    "type": "address"
                },
                {
                    "internalType": "uint256",
                    "name": "leaseDuration",
                    "type": "uint256"
                }
            ],
            "name": "createLease",
            "outputs": [],
            "stateMutability": "nonpayable",
            "type": "function"
        },
        {
            "inputs": [
                {
                    "internalType": "bytes32",
                    "name": "leaseId",
                    "type": "bytes32"
                }
            ],
            "name": "deleteData",
            "outputs": [],
            "stateMutability": "nonpayable",
            "type": "function"
        },
        {
            "inputs": [
                {
                    "internalType": "bytes32",
                    "name": "",
                    "type": "bytes32"
                }
            ],
            "name": "leases",
            "outputs": [
                {
                    "internalType": "address",
                    "name": "owner",
                    "type": "address"
                },
                {
                    "internalType": "address",
                    "name": "tenant",
                    "type": "address"
                },
                {
                    "internalType": "uint256",
                    "name": "leaseDuration",
                    "type": "uint256"
                },
                {
                    "internalType": "uint256",
                    "name": "leaseStartTime",
                    "type": "uint256"
                },
                {
                    "internalType": "bool",
                    "name": "isActive",
                    "type": "bool"
                }
            ],
            "stateMutability": "view",
            "type": "function"
        },
        {
            "inputs": [
                {
                    "internalType": "bytes32",
                    "name": "leaseId",
                    "type": "bytes32"
                }
            ],
            "name": "revokeLease",
            "outputs": [],
            "stateMutability": "nonpayable",
            "type": "function"
        }
    ],
    "bytecode": "608060405234801561001057600080fd5b50610536806100206000396000f3fe608060405234801561001057600080fd5b506004361061004c5760003560e01c80631839a5a31461005157806386911cde146100d6578063964d418d146100eb578063f50e3cb5146100fe575b600080fd5b61009d61005f366004610488565b600060208190529081526040902080546001820154600283015460038401546004909401546001600160a01b03938416949390921692909160ff1685565b604080516001600160a01b0396871681529590941660208601529284019190915260608301521515608082015260a00160405180910390f35b6100e96100e4366004610488565b610111565b005b6100e96100f93660046104a1565b610282565b6100e961010c366004610488565b610392565b60008181526020819052604090206001015481906001600160a01b031633146101725760405162461bcd60e51b815260206004820152600e60248201526d139bdd081d1a19481d195b985b9d60921b60448201526064015b60405180910390fd5b600082815260208190526040902060040154829060ff166101cb5760405162461bcd60e51b81526020600482015260136024820152724c65617365206973206e6f742061637469766560681b6044820152606401610169565b600083815260208190526040902060028101546003909101546101ee91906104d9565b42101561023d5760405162461bcd60e51b815260206004820152601860248201527f4c6561736520706572696f64206e6f74206578706972656400000000000000006044820152606401610169565b600083815260208190526040808220600401805460ff191690555184917f5236602858fa598e0b1c0f4eab28a46d135d76a3a28731d8dca95bc52c91bc3391a2505050565b6040516bffffffffffffffffffffffff1933606090811b8216602084015284901b16603482015242604882015260009060680160408051808303601f19018152828252805160209182012060a084018352338085526001600160a01b038881168487018181528787018a81524260608a01908152600160808b018181526000898152808b528b90209b518c546001600160a01b0319908116918916919091178d559451918c018054909516919096161790925551600289015551600388015590516004909601805460ff191696151596909617909555925186815290945084917f57acec708e7a7b4437dd4bb623ed53257e444ac360b3fb2ddf9f157ad13e98a0910160405180910390a4505050565b60008181526020819052604090205481906001600160a01b031633146103ea5760405162461bcd60e51b815260206004820152600d60248201526c2737ba103a34329037bbb732b960991b6044820152606401610169565b600082815260208190526040902060040154829060ff166104435760405162461bcd60e51b81526020600482015260136024820152724c65617365206973206e6f742061637469766560681b6044820152606401610169565b600083815260208190526040808220600401805460ff191690555184917f4026686dcbecb249520bcb363518451d3fc2ee363892865921c50cd1da473b8c91a2505050565b60006020828403121561049a57600080fd5b5035919050565b600080604083850312156104b457600080fd5b82356001600160a01b03811681146104cb57600080fd5b946020939093013593505050565b808201808211156104fa57634e487b7160e01b600052601160045260246000fd5b9291505056fea2646970667358221220c772357eda12bf45fe0d8a44ec8834ec73489d55d3efc9d120a4e9e94c74adab64736f6c63430008130033",
    "sourcePath": "/home/dell/Documents/blockchain/index.sol",
    "compiler": {
        "name": "solc",
        "version": "0.8.19+commit.7dd6d404"
    },
    "functionHashes": {
        "createLease(address,uint256)": "964d418d",
        "deleteData(bytes32)": "86911cde",
        "leases(bytes32)": "1839a5a3",
        "revokeLease(bytes32)": "f50e3cb5"
    },
    "gasEstimates": {
        "creation": {
            "codeDepositCost": "266800",
            "executionCost": "306",
            "totalCost": "267106"
        },
        "external": {
            "createLease(address,uint256)": "119923",
            "deleteData(bytes32)": "34478",
            "leases(bytes32)": "11014",
            "revokeLease(bytes32)": "30126"
        }
    }
}